S01B0000545830303153657269616C496E7465727275702E7372656313
S11300000C9434000C9451000C9451000C94510045
S11300100C9451000C9451000C9451000C94510018
S11300200C9451000C9451000C9451000C94510008
S11300300C9451000C9451000C9451000C945100F8
S11300400C9451000C9451000C948C000C945100AD
S11300500C9451000C9451000C9451000C945100D8
S11300600C9451000C94510011241FBECFEFD8E022
S1130070DEBFCDBF11E0A0E0B1E0E0E3F1E002C0FB
S113008005900D92A030B107D9F721E0A0E0B1E0CE
S113009001C01D92A531B207E1F70E9479000C94CA
S11300A096000C940000E0ECF0E0908195FFFDCF09
S11300B08093C6000895CF93DF93EC018881882351
S11300C031F021960E94530089918111FBCFDF9179
S11300D0CF910895F89487E690E09093C5008093BB
S11300E0C40088E98093C10086E08093C2007894BC
S11300F008950E946A00809100018823E1F381E061
S113010091E00E945B008DE00E9453008AE00E940F
S1130110530010920001EFCF1F920F920FB60F926F
S113012011240F900FBE0F901F901895F894FFCFD5
S9030000FC
